{
  "contractName": "Pyr",
  "abi": [
    {
      "anonymous": false,
      "inputs": [
        {
          "indexed": true,
          "internalType": "address",
          "name": "creator",
          "type": "address"
        },
        {
          "indexed": false,
          "internalType": "address",
          "name": "contentId",
          "type": "address"
        }
      ],
      "name": "ContentPublished",
      "type": "event"
    },
    {
      "inputs": [
        {
          "internalType": "string",
          "name": "_title",
          "type": "string"
        },
        {
          "internalType": "uint256",
          "name": "_price",
          "type": "uint256"
        },
        {
          "internalType": "string",
          "name": "_encryptedBucket",
          "type": "string"
        }
      ],
      "name": "newContent",
      "outputs": [],
      "stateMutability": "nonpayable",
      "type": "function"
    },
    {
      "inputs": [
        {
          "internalType": "address",
          "name": "creator",
          "type": "address"
        }
      ],
      "name": "getCreatorLibrary",
      "outputs": [
        {
          "internalType": "address[]",
          "name": "",
          "type": "address[]"
        }
      ],
      "stateMutability": "view",
      "type": "function"
    }
  ],
  "bytecode": "0x608060405234801561001057600080fd5b50613990806100206000396000f3fe608060405234801561001057600080fd5b50600436106100365760003560e01c80632b6e32771461003b578063491451f314610197575b600080fd5b6101956004803603606081101561005157600080fd5b810190808035906020019064010000000081111561006e57600080fd5b82018360208201111561008057600080fd5b803590602001918460018302840111640100000000831117156100a257600080fd5b91908080601f016020809104026020016040519081016040528093929190818152602001838380828437600081840152601f19601f820116905080830192505050505050509192919290803590602001909291908035906020019064010000000081111561010f57600080fd5b82018360208201111561012157600080fd5b8035906020019184600183028401116401000000008311171561014357600080fd5b91908080601f016020809104026020016040519081016040528093929190818152602001838380828437600081840152601f19601f820116905080830192505050505050509192919290505050610230565b005b6101d9600480360360208110156101ad57600080fd5b81019080803573ffffffffffffffffffffffffffffffffffffffff169060200190929190505050610495565b6040518080602001828103825283818151815260200191508051906020019060200280838360005b8381101561021c578082015181840152602081019050610201565b505050509050019250505060405180910390f35b60008383833360405161024290610561565b8080602001858152602001806020018473ffffffffffffffffffffffffffffffffffffffff1673ffffffffffffffffffffffffffffffffffffffff168152602001838103835287818151815260200191508051906020019080838360005b838110156102bb5780820151818401526020810190506102a0565b50505050905090810190601f1680156102e85780820380516001836020036101000a031916815260200191505b50838103825285818151815260200191508051906020019080838360005b83811015610321578082015181840152602081019050610306565b50505050905090810190601f16801561034e5780820380516001836020036101000a031916815260200191505b509650505050505050604051809103906000f080158015610373573d6000803e3d6000fd5b5090506000803373ffffffffffffffffffffffffffffffffffffffff1673ffffffffffffffffffffffffffffffffffffffff168152602001908152602001600020819080600181540180825580915050600190039060005260206000200160009091909190916101000a81548173ffffffffffffffffffffffffffffffffffffffff021916908373ffffffffffffffffffffffffffffffffffffffff1602179055503373ffffffffffffffffffffffffffffffffffffffff167f21ca99e6bd3269e5cf128a3b8a79feefae51e5a9bd2653d1e5805b5c190611ce82604051808273ffffffffffffffffffffffffffffffffffffffff1673ffffffffffffffffffffffffffffffffffffffff16815260200191505060405180910390a250505050565b60606000808373ffffffffffffffffffffffffffffffffffffffff1673ffffffffffffffffffffffffffffffffffffffff16815260200190815260200160002080548060200260200160405190810160405280929190818152602001828054801561055557602002820191906000526020600020905b8160009054906101000a900473ffffffffffffffffffffffffffffffffffffffff1673ffffffffffffffffffffffffffffffffffffffff168152602001906001019080831161050b575b50505050509050919050565b6133ec8061056f8339019056fe60806040523480156200001157600080fd5b50604051620033ec380380620033ec833981810160405260808110156200003757600080fd5b81019080805160405193929190846401000000008211156200005857600080fd5b838201915060208201858111156200006f57600080fd5b82518660018202830111640100000000821117156200008d57600080fd5b8083526020830192505050908051906020019080838360005b83811015620000c3578082015181840152602081019050620000a6565b50505050905090810190601f168015620000f15780820380516001836020036101000a031916815260200191505b5060405260200180519060200190929190805160405193929190846401000000008211156200011f57600080fd5b838201915060208201858111156200013657600080fd5b82518660018202830111640100000000821117156200015457600080fd5b8083526020830192505050908051906020019080838360005b838110156200018a5780820151818401526020810190506200016d565b50505050905090810190601f168015620001b85780820380516001836020036101000a031916815260200191505b5060405260200180519060200190929190505050836040518060400160405280600381526020017f50595200000000000000000000000000000000000000000000000000000000008152506200021b6301ffc9a760e01b6200031b60201b60201c565b81600690805190602001906200023392919062000424565b5080600790805190602001906200024c92919062000424565b50620002656380ac58cd60e01b6200031b60201b60201c565b6200027d635b5e139f60e01b6200031b60201b60201c565b6200029563780e9d6360e01b6200031b60201b60201c565b505083600a9080519060200190620002af92919062000424565b5082600b8190555081600c9080519060200190620002cf92919062000424565b5080600d60006101000a81548173ffffffffffffffffffffffffffffffffffffffff021916908373ffffffffffffffffffffffffffffffffffffffff16021790555050505050620004d3565b63ffffffff60e01b817bffffffffffffffffffffffffffffffffffffffffffffffffffffffff19161415620003b8576040517f08c379a000000000000000000000000000000000000000000000000000000000815260040180806020018281038252601c8152602001807f4552433136353a20696e76616c696420696e746572666163652069640000000081525060200191505060405180910390fd5b6001600080837bffffffffffffffffffffffffffffffffffffffffffffffffffffffff19167bffffffffffffffffffffffffffffffffffffffffffffffffffffffff1916815260200190815260200160002060006101000a81548160ff02191690831515021790555050565b828054600181600116156101000203166002900490600052602060002090601f016020900481019282601f106200046757805160ff191683800117855562000498565b8280016001018555821562000498579182015b82811115620004975782518255916020019190600101906200047a565b5b509050620004a79190620004ab565b5090565b620004d091905b80821115620004cc576000816000905550600101620004b2565b5090565b90565b612f0980620004e36000396000f3fe6080604052600436106101145760003560e01c80636352211e116100a0578063a026aca711610064578063a026aca7146106ee578063a22cb46514610824578063b88d4fde14610881578063c87b56dd14610993578063e985e9c514610a4757610114565b80636352211e146104d057806364edfbf01461054b5780636c0360eb1461056957806370a08231146105f957806395d89b411461065e57610114565b806318160ddd116100e757806318160ddd146102f157806323b872dd1461031c5780632f745c591461039757806342842e0e146104065780634f6ccce71461048157610114565b806301ffc9a71461011957806306fdde031461018b578063081812fc1461021b578063095ea7b314610296575b600080fd5b34801561012557600080fd5b506101716004803603602081101561013c57600080fd5b8101908080357bffffffffffffffffffffffffffffffffffffffffffffffffffffffff19169060200190929190505050610ad0565b604051808215151515815260200191505060405180910390f35b34801561019757600080fd5b506101a0610b37565b6040518080602001828103825283818151815260200191508051906020019080838360005b838110156101e05780820151818401526020810190506101c5565b50505050905090810190601f16801561020d5780820380516001836020036101000a031916815260200191505b509250505060405180910390f35b34801561022757600080fd5b506102546004803603602081101561023e57600080fd5b8101908080359060200190929190505050610bd9565b604051808273ffffffffffffffffffffffffffffffffffffffff1673ffffffffffffffffffffffffffffffffffffffff16815260200191505060405180910390f35b3480156102a257600080fd5b506102ef600480360360408110156102b957600080fd5b81019080803573ffffffffffffffffffffffffffffffffffffffff16906020019092919080359060200190929190505050610c74565b005b3480156102fd57600080fd5b50610306610db8565b6040518082815260200191505060405180910390f35b34801561032857600080fd5b506103956004803603606081101561033f57600080fd5b81019080803573ffffffffffffffffffffffffffffffffffffffff169060200190929190803573ffffffffffffffffffffffffffffffffffffffff16906020019092919080359060200190929190505050610dc9565b005b3480156103a357600080fd5b506103f0600480360360408110156103ba57600080fd5b81019080803573ffffffffffffffffffffffffffffffffffffffff16906020019092919080359060200190929190505050610e3f565b6040518082815260200191505060405180910390f35b34801561041257600080fd5b5061047f6004803603606081101561042957600080fd5b81019080803573ffffffffffffffffffffffffffffffffffffffff169060200190929190803573ffffffffffffffffffffffffffffffffffffffff16906020019092919080359060200190929190505050610e9a565b005b34801561048d57600080fd5b506104ba600480360360208110156104a457600080fd5b8101908080359060200190929190505050610eba565b6040518082815260200191505060405180910390f35b3480156104dc57600080fd5b50610509600480360360208110156104f357600080fd5b8101908080359060200190929190505050610edd565b604051808273ffffffffffffffffffffffffffffffffffffffff1673ffffffffffffffffffffffffffffffffffffffff16815260200191505060405180910390f35b610553610f14565b6040518082815260200191505060405180910390f35b34801561057557600080fd5b5061057e611070565b6040518080602001828103825283818151815260200191508051906020019080838360005b838110156105be5780820151818401526020810190506105a3565b50505050905090810190601f1680156105eb5780820380516001836020036101000a031916815260200191505b509250505060405180910390f35b34801561060557600080fd5b506106486004803603602081101561061c57600080fd5b81019080803573ffffffffffffffffffffffffffffffffffffffff169060200190929190505050611112565b6040518082815260200191505060405180910390f35b34801561066a57600080fd5b506106736111e7565b6040518080602001828103825283818151815260200191508051906020019080838360005b838110156106b3578082015181840152602081019050610698565b50505050905090810190601f1680156106e05780820380516001836020036101000a031916815260200191505b509250505060405180910390f35b3480156106fa57600080fd5b50610703611289565b6040518080602001858152602001806020018473ffffffffffffffffffffffffffffffffffffffff1673ffffffffffffffffffffffffffffffffffffffff168152602001838103835287818151815260200191508051906020019080838360005b8381101561077f578082015181840152602081019050610764565b50505050905090810190601f1680156107ac5780820380516001836020036101000a031916815260200191505b50838103825285818151815260200191508051906020019080838360005b838110156107e55780820151818401526020810190506107ca565b50505050905090810190601f1680156108125780820380516001836020036101000a031916815260200191505b50965050505050505060405180910390f35b34801561083057600080fd5b5061087f6004803603604081101561084757600080fd5b81019080803573ffffffffffffffffffffffffffffffffffffffff169060200190929190803515159060200190929190505050611404565b005b34801561088d57600080fd5b50610991600480360360808110156108a457600080fd5b81019080803573ffffffffffffffffffffffffffffffffffffffff169060200190929190803573ffffffffffffffffffffffffffffffffffffffff169060200190929190803590602001909291908035906020019064010000000081111561090b57600080fd5b82018360208201111561091d57600080fd5b8035906020019184600183028401116401000000008311171561093f57600080fd5b91908080601f016020809104026020016040519081016040528093929190818152602001838380828437600081840152601f19601f8201169050808301925050505050505091929192905050506115bc565b005b34801561099f57600080fd5b506109cc600480360360208110156109b657600080fd5b8101908080359060200190929190505050611634565b6040518080602001828103825283818151815260200191508051906020019080838360005b83811015610a0c5780820151818401526020810190506109f1565b50505050905090810190601f168015610a395780820380516001836020036101000a031916815260200191505b509250505060405180910390f35b348015610a5357600080fd5b50610ab660048036036040811015610a6a57600080fd5b81019080803573ffffffffffffffffffffffffffffffffffffffff169060200190929190803573ffffffffffffffffffffffffffffffffffffffff16906020019092919050505061191d565b604051808215151515815260200191505060405180910390f35b6000806000837bffffffffffffffffffffffffffffffffffffffffffffffffffffffff19167bffffffffffffffffffffffffffffffffffffffffffffffffffffffff1916815260200190815260200160002060009054906101000a900460ff169050919050565b606060068054600181600116156101000203166002900480601f016020809104026020016040519081016040528092919081815260200182805460018160011615610100020316600290048015610bcf5780601f10610ba457610100808354040283529160200191610bcf565b820191906000526020600020905b815481529060010190602001808311610bb257829003601f168201915b5050505050905090565b6000610be4826119b1565b610c39576040517f08c379a000000000000000000000000000000000000000000000000000000000815260040180806020018281038252602c815260200180612db3602c913960400191505060405180910390fd5b6004600083815260200190815260200160002060009054906101000a900473ffffffffffffffffffffffffffffffffffffffff169050919050565b6000610c7f82610edd565b90508073ffffffffffffffffffffffffffffffffffffffff168373ffffffffffffffffffffffffffffffffffffffff161415610d06576040517f08c379a0000000000000000000000000000000000000000000000000000000008152600401808060200182810382526021815260200180612e826021913960400191505060405180910390fd5b8073ffffffffffffffffffffffffffffffffffffffff16610d256119ce565b73ffffffffffffffffffffffffffffffffffffffff161480610d545750610d5381610d4e6119ce565b61191d565b5b610da9576040517f08c379a0000000000000000000000000000000000000000000000000000000008152600401808060200182810382526038815260200180612d066038913960400191505060405180910390fd5b610db383836119d6565b505050565b6000610dc46002611a8f565b905090565b610dda610dd46119ce565b82611aa4565b610e2f576040517f08c379a0000000000000000000000000000000000000000000000000000000008152600401808060200182810382526031815260200180612ea36031913960400191505060405180910390fd5b610e3a838383611b98565b505050565b6000610e9282600160008673ffffffffffffffffffffffffffffffffffffffff1673ffffffffffffffffffffffffffffffffffffffff168152602001908152602001600020611ddb90919063ffffffff16565b905092915050565b610eb5838383604051806020016040528060008152506115bc565b505050565b600080610ed1836002611df590919063ffffffff16565b50905080915050919050565b6000610f0d82604051806060016040528060298152602001612d68602991396002611e249092919063ffffffff16565b9050919050565b6000600b54341015610f71576040517f08c379a000000000000000000000000000000000000000000000000000000000815260040180806020018281038252604b815260200180612ddf604b913960600191505060405180910390fd5b60003073ffffffffffffffffffffffffffffffffffffffff166318160ddd6040518163ffffffff1660e01b815260040160206040518083038186803b158015610fb957600080fd5b505afa158015610fcd573d6000803e3d6000fd5b505050506040513d6020811015610fe357600080fd5b810190808051906020019092919050505090506110003382611e43565b600d60009054906101000a900473ffffffffffffffffffffffffffffffffffffffff1673ffffffffffffffffffffffffffffffffffffffff166108fc349081150290604051600060405180830381858888f19350505050158015611068573d6000803e3d6000fd5b508091505090565b606060098054600181600116156101000203166002900480601f0160208091040260200160405190810160405280929190818152602001828054600181600116156101000203166002900480156111085780601f106110dd57610100808354040283529160200191611108565b820191906000526020600020905b8154815290600101906020018083116110eb57829003601f168201915b5050505050905090565b60008073ffffffffffffffffffffffffffffffffffffffff168273ffffffffffffffffffffffffffffffffffffffff161415611199576040517f08c379a000000000000000000000000000000000000000000000000000000000815260040180806020018281038252602a815260200180612d3e602a913960400191505060405180910390fd5b6111e0600160008473ffffffffffffffffffffffffffffffffffffffff1673ffffffffffffffffffffffffffffffffffffffff168152602001908152602001600020611e61565b9050919050565b606060078054600181600116156101000203166002900480601f01602080910402602001604051908101604052809291908181526020018280546001816001161561010002031660029004801561127f5780601f106112545761010080835404028352916020019161127f565b820191906000526020600020905b81548152906001019060200180831161126257829003601f168201915b5050505050905090565b6060600060606000600a600b54600c600d60009054906101000a900473ffffffffffffffffffffffffffffffffffffffff16838054600181600116156101000203166002900480601f0160208091040260200160405190810160405280929190818152602001828054600181600116156101000203166002900480156113505780601f1061132557610100808354040283529160200191611350565b820191906000526020600020905b81548152906001019060200180831161133357829003601f168201915b50505050509350818054600181600116156101000203166002900480601f0160208091040260200160405190810160405280929190818152602001828054600181600116156101000203166002900480156113ec5780601f106113c1576101008083540402835291602001916113ec565b820191906000526020600020905b8154815290600101906020018083116113cf57829003601f168201915b50505050509150809050935093509350935090919293565b61140c6119ce565b73ffffffffffffffffffffffffffffffffffffffff168273ffffffffffffffffffffffffffffffffffffffff1614156114ad576040517f08c379a00000000000000000000000000000000000000000000000000000000081526004018080602001828103825260198152602001807f4552433732313a20617070726f766520746f2063616c6c65720000000000000081525060200191505060405180910390fd5b80600560006114ba6119ce565b73ffffffffffffffffffffffffffffffffffffffff1673ffffffffffffffffffffffffffffffffffffffff16815260200190815260200160002060008473ffffffffffffffffffffffffffffffffffffffff1673ffffffffffffffffffffffffffffffffffffffff16815260200190815260200160002060006101000a81548160ff0219169083151502179055508173ffffffffffffffffffffffffffffffffffffffff166115676119ce565b73ffffffffffffffffffffffffffffffffffffffff167f17307eab39ab6107e8899845ad3d59bd9653f200f220920489ca2b5937696c3183604051808215151515815260200191505060405180910390a35050565b6115cd6115c76119ce565b83611aa4565b611622576040517f08c379a0000000000000000000000000000000000000000000000000000000008152600401808060200182810382526031815260200180612ea36031913960400191505060405180910390fd5b61162e84848484611e76565b50505050565b606061163f826119b1565b611694576040517f08c379a000000000000000000000000000000000000000000000000000000000815260040180806020018281038252602f815260200180612e53602f913960400191505060405180910390fd5b6060600860008481526020019081526020016000208054600181600116156101000203166002900480601f01602080910402602001604051908101604052809291908181526020018280546001816001161561010002031660029004801561173d5780601f106117125761010080835404028352916020019161173d565b820191906000526020600020905b81548152906001019060200180831161172057829003601f168201915b5050505050905060006009805460018160011615610100020316600290049050141561176c5780915050611918565b6000815111156118455760098160405160200180838054600181600116156101000203166002900480156117d75780601f106117b55761010080835404028352918201916117d7565b820191906000526020600020905b8154815290600101906020018083116117c3575b505082805190602001908083835b6020831061180857805182526020820191506020810190506020830392506117e5565b6001836020036101000a03801982511681845116808217855250505050505090500192505050604051602081830303815290604052915050611918565b600961185084611ee8565b60405160200180838054600181600116156101000203166002900480156118ae5780601f1061188c5761010080835404028352918201916118ae565b820191906000526020600020905b81548152906001019060200180831161189a575b505082805190602001908083835b602083106118df57805182526020820191506020810190506020830392506118bc565b6001836020036101000a038019825116818451168082178552505050505050905001925050506040516020818303038152906040529150505b919050565b6000600560008473ffffffffffffffffffffffffffffffffffffffff1673ffffffffffffffffffffffffffffffffffffffff16815260200190815260200160002060008373ffffffffffffffffffffffffffffffffffffffff1673ffffffffffffffffffffffffffffffffffffffff16815260200190815260200160002060009054906101000a900460ff16905092915050565b60006119c782600261201890919063ffffffff16565b9050919050565b600033905090565b816004600083815260200190815260200160002060006101000a81548173ffffffffffffffffffffffffffffffffffffffff021916908373ffffffffffffffffffffffffffffffffffffffff160217905550808273ffffffffffffffffffffffffffffffffffffffff16611a4983610edd565b73ffffffffffffffffffffffffffffffffffffffff167f8c5be1e5ebec7d5bd14f71427d1e84f3dd0314c0f7b2291e5b200ac8c7c3b92560405160405180910390a45050565b6000611a9d82600001612032565b9050919050565b6000611aaf826119b1565b611b04576040517f08c379a000000000000000000000000000000000000000000000000000000000815260040180806020018281038252602c815260200180612cda602c913960400191505060405180910390fd5b6000611b0f83610edd565b90508073ffffffffffffffffffffffffffffffffffffffff168473ffffffffffffffffffffffffffffffffffffffff161480611b7e57508373ffffffffffffffffffffffffffffffffffffffff16611b6684610bd9565b73ffffffffffffffffffffffffffffffffffffffff16145b80611b8f5750611b8e818561191d565b5b91505092915050565b8273ffffffffffffffffffffffffffffffffffffffff16611bb882610edd565b73ffffffffffffffffffffffffffffffffffffffff1614611c24576040517f08c379a0000000000000000000000000000000000000000000000000000000008152600401808060200182810382526029815260200180612e2a6029913960400191505060405180910390fd5b600073ffffffffffffffffffffffffffffffffffffffff168273ffffffffffffffffffffffffffffffffffffffff161415611caa576040517f08c379a0000000000000000000000000000000000000000000000000000000008152600401808060200182810382526024815260200180612cb66024913960400191505060405180910390fd5b611cb5838383612043565b611cc06000826119d6565b611d1181600160008673ffffffffffffffffffffffffffffffffffffffff1673ffffffffffffffffffffffffffffffffffffffff16815260200190815260200160002061204890919063ffffffff16565b50611d6381600160008573ffffffffffffffffffffffffffffffffffffffff1673ffffffffffffffffffffffffffffffffffffffff16815260200190815260200160002061206290919063ffffffff16565b50611d7a8183600261207c9092919063ffffffff16565b50808273ffffffffffffffffffffffffffffffffffffffff168473ffffffffffffffffffffffffffffffffffffffff167fddf252ad1be2c89b69c2b068fc378daa952ba7f163c4a11628f55a4df523b3ef60405160405180910390a4505050565b6000611dea83600001836120b1565b60001c905092915050565b600080600080611e088660000186612134565b915091508160001c8160001c8090509350935050509250929050565b6000611e37846000018460001b846121cd565b60001c90509392505050565b611e5d8282604051806020016040528060008152506122c3565b5050565b6000611e6f82600001612334565b9050919050565b611e81848484611b98565b611e8d84848484612345565b611ee2576040517f08c379a0000000000000000000000000000000000000000000000000000000008152600401808060200182810382526032815260200180612c846032913960400191505060405180910390fd5b50505050565b60606000821415611f30576040518060400160405280600181526020017f30000000000000000000000000000000000000000000000000000000000000008152509050612013565b600082905060005b60008214611f5a578080600101915050600a8281611f5257fe5b049150611f38565b6060816040519080825280601f01601f191660200182016040528015611f8f5781602001600182028038833980820191505090505b50905060006001830390508593505b6000841461200b57600a8481611fb057fe5b0660300160f81b82828060019003935081518110611fca57fe5b60200101907effffffffffffffffffffffffffffffffffffffffffffffffffffffffffffff1916908160001a905350600a848161200357fe5b049350611f9e565b819450505050505b919050565b600061202a836000018360001b61258a565b905092915050565b600081600001805490509050919050565b505050565b600061205a836000018360001b6125ad565b905092915050565b6000612074836000018360001b612695565b905092915050565b60006120a8846000018460001b8473ffffffffffffffffffffffffffffffffffffffff1660001b612705565b90509392505050565b600081836000018054905011612112576040517f08c379a0000000000000000000000000000000000000000000000000000000008152600401808060200182810382526022815260200180612c626022913960400191505060405180910390fd5b82600001828154811061212157fe5b9060005260206000200154905092915050565b60008082846000018054905011612196576040517f08c379a0000000000000000000000000000000000000000000000000000000008152600401808060200182810382526022815260200180612d916022913960400191505060405180910390fd5b60008460000184815481106121a757fe5b906000526020600020906002020190508060000154816001015492509250509250929050565b60008084600101600085815260200190815260200160002054905060008114158390612294576040517f08c379a00000000000000000000000000000000000000000000000000000000081526004018080602001828103825283818151815260200191508051906020019080838360005b8381101561225957808201518184015260208101905061223e565b50505050905090810190601f1680156122865780820380516001836020036101000a031916815260200191505b509250505060405180910390fd5b508460000160018203815481106122a757fe5b9060005260206000209060020201600101549150509392505050565b6122cd83836127e1565b6122da6000848484612345565b61232f576040517f08c379a0000000000000000000000000000000000000000000000000000000008152600401808060200182810382526032815260200180612c846032913960400191505060405180910390fd5b505050565b600081600001805490509050919050565b60006123668473ffffffffffffffffffffffffffffffffffffffff166129d5565b6123735760019050612582565b606061250963150b7a0260e01b6123886119ce565b888787604051602401808573ffffffffffffffffffffffffffffffffffffffff1673ffffffffffffffffffffffffffffffffffffffff1681526020018473ffffffffffffffffffffffffffffffffffffffff1673ffffffffffffffffffffffffffffffffffffffff16815260200183815260200180602001828103825283818151815260200191508051906020019080838360005b8381101561243857808201518184015260208101905061241d565b50505050905090810190601f1680156124655780820380516001836020036101000a031916815260200191505b5095505050505050604051602081830303815290604052907bffffffffffffffffffffffffffffffffffffffffffffffffffffffff19166020820180517bffffffffffffffffffffffffffffffffffffffffffffffffffffffff8381831617835250505050604051806060016040528060328152602001612c84603291398773ffffffffffffffffffffffffffffffffffffffff16612a209092919063ffffffff16565b9050600081806020019051602081101561252257600080fd5b8101908080519060200190929190505050905063150b7a0260e01b7bffffffffffffffffffffffffffffffffffffffffffffffffffffffff1916817bffffffffffffffffffffffffffffffffffffffffffffffffffffffff191614925050505b949350505050565b600080836001016000848152602001908152602001600020541415905092915050565b6000808360010160008481526020019081526020016000205490506000811461268957600060018203905060006001866000018054905003905060008660000182815481106125f857fe5b906000526020600020015490508087600001848154811061261557fe5b906000526020600020018190555060018301876001016000838152602001908152602001600020819055508660000180548061264d57fe5b6001900381819060005260206000200160009055905586600101600087815260200190815260200160002060009055600194505050505061268f565b60009150505b92915050565b60006126a18383612a38565b6126fa5782600001829080600181540180825580915050600190039060005260206000200160009091909190915055826000018054905083600101600084815260200190815260200160002081905550600190506126ff565b600090505b92915050565b60008084600101600085815260200190815260200160002054905060008114156127ac578460000160405180604001604052808681526020018581525090806001815401808255809150506001900390600052602060002090600202016000909190919091506000820151816000015560208201518160010155505084600001805490508560010160008681526020019081526020016000208190555060019150506127da565b828560000160018303815481106127bf57fe5b90600052602060002090600202016001018190555060009150505b9392505050565b600073ffffffffffffffffffffffffffffffffffffffff168273ffffffffffffffffffffffffffffffffffffffff161415612884576040517f08c379a00000000000000000000000000000000000000000000000000000000081526004018080602001828103825260208152602001807f4552433732313a206d696e7420746f20746865207a65726f206164647265737381525060200191505060405180910390fd5b61288d816119b1565b15612900576040517f08c379a000000000000000000000000000000000000000000000000000000000815260040180806020018281038252601c8152602001807f4552433732313a20746f6b656e20616c7265616479206d696e7465640000000081525060200191505060405180910390fd5b61290c60008383612043565b61295d81600160008573ffffffffffffffffffffffffffffffffffffffff1673ffffffffffffffffffffffffffffffffffffffff16815260200190815260200160002061206290919063ffffffff16565b506129748183600261207c9092919063ffffffff16565b50808273ffffffffffffffffffffffffffffffffffffffff16600073ffffffffffffffffffffffffffffffffffffffff167fddf252ad1be2c89b69c2b068fc378daa952ba7f163c4a11628f55a4df523b3ef60405160405180910390a45050565b60008060007fc5d2460186f7233c927e7db2dcc703c0e500b653ca82273b7bfad8045d85a47060001b9050833f9150808214158015612a1757506000801b8214155b92505050919050565b6060612a2f8484600085612a5b565b90509392505050565b600080836001016000848152602001908152602001600020541415905092915050565b6060612a66856129d5565b612ad8576040517f08c379a000000000000000000000000000000000000000000000000000000000815260040180806020018281038252601d8152602001807f416464726573733a2063616c6c20746f206e6f6e2d636f6e747261637400000081525060200191505060405180910390fd5b600060608673ffffffffffffffffffffffffffffffffffffffff1685876040518082805190602001908083835b60208310612b285780518252602082019150602081019050602083039250612b05565b6001836020036101000a03801982511681845116808217855250505050505090500191505060006040518083038185875af1925050503d8060008114612b8a576040519150601f19603f3d011682016040523d82523d6000602084013e612b8f565b606091505b50915091508115612ba4578092505050612c59565b600081511115612bb75780518082602001fd5b836040517f08c379a00000000000000000000000000000000000000000000000000000000081526004018080602001828103825283818151815260200191508051906020019080838360005b83811015612c1e578082015181840152602081019050612c03565b50505050905090810190601f168015612c4b5780820380516001836020036101000a031916815260200191505b509250505060405180910390fd5b94935050505056fe456e756d657261626c655365743a20696e646578206f7574206f6620626f756e64734552433732313a207472616e7366657220746f206e6f6e20455243373231526563656976657220696d706c656d656e7465724552433732313a207472616e7366657220746f20746865207a65726f20616464726573734552433732313a206f70657261746f7220717565727920666f72206e6f6e6578697374656e7420746f6b656e4552433732313a20617070726f76652063616c6c6572206973206e6f74206f776e6572206e6f7220617070726f76656420666f7220616c6c4552433732313a2062616c616e636520717565727920666f7220746865207a65726f20616464726573734552433732313a206f776e657220717565727920666f72206e6f6e6578697374656e7420746f6b656e456e756d657261626c654d61703a20696e646578206f7574206f6620626f756e64734552433732313a20617070726f76656420717565727920666f72206e6f6e6578697374656e7420746f6b656e5061796d656e742076616c7565206973206c657373207468616e2074686520636f6e74656e742070726963652e20506c656173652070617920746865206d696e696d756d2070726963652e4552433732313a207472616e73666572206f6620746f6b656e2074686174206973206e6f74206f776e4552433732314d657461646174613a2055524920717565727920666f72206e6f6e6578697374656e7420746f6b656e4552433732313a20617070726f76616c20746f2063757272656e74206f776e65724552433732313a207472616e736665722063616c6c6572206973206e6f74206f776e6572206e6f7220617070726f766564a2646970667358221220ba5f46a0cf6d4d43654acc22afb80b4eb4d42e4b0843194f7632f680a92f8c7164736f6c63430006020033a2646970667358221220263d2829bb5a2dee047e54180494767d878f84303720f8bc88eedf75c97e414d64736f6c63430006020033",
  "source": "// SPDX-License-Identifier: MIT\npragma solidity ^0.6.2;\n\n// ERC721, Enumerable, & MetaData\nimport \"./ERC721.sol\";\n\ncontract Content is ERC721 {\n    // Content MetaData that is not part of the ERC721 MetaData standard\n    string title;\n    uint256 price;\n    string encryptedBucket;\n    address payable owner;\n    constructor(string memory _title, uint256 _price, string memory _encryptedBucket, address payable _owner) ERC721(_title, \"PYR\") public {\n        title = _title;\n        price = _price;\n        encryptedBucket = _encryptedBucket;\n        owner = _owner;\n    }\n    // Returns up to date ContentData\n    function getContentData() public view returns(\n        string memory,\n        uint256,\n        string memory,\n        address\n    ){\n        return (\n            title,\n            price,\n            encryptedBucket,\n            owner\n        );\n    }\n    // _safeMint is called, transfering a token to msg.sender & payment to contract owner\n    function purchase() public payable returns(uint256) {\n        require(msg.value >= price,\"Payment value is less than the content price. Please pay the minimum price.\");\n        uint256 supply = this.totalSupply();\n        _safeMint(msg.sender, supply);\n        owner.transfer(msg.value);\n        return (supply);\n    }\n}\n// Factory contract to publish content as a new ERC-721 NFT contract\ncontract Pyr {\n    // NFT Contract address mapped to the creator's ETH address\n    mapping(address => address[]) creatorLibrary;\n    // Logs the contentId(NFT Contract Address) and its creator's address\n    event ContentPublished(address indexed creator, address contentId);\n    // Publish new content\n    function newContent(string memory _title, uint256 _price, string memory _encryptedBucket) public {\n        address contentId = address(new Content(_title, _price, _encryptedBucket, msg.sender));\n        creatorLibrary[msg.sender].push(contentId);\n        emit ContentPublished (msg.sender, contentId);\n    }\n    // Returns all Content in a Creator's Library\n    function getCreatorLibrary(address creator) public view returns(address[] memory) {\n        return(creatorLibrary[creator]);\n    }\n}",
  "sourcePath": "/home/foss/gits/pyr/contracts/Pyr.sol",
  "compiler": {
    "name": "solc",
    "version": "0.6.2+commit.bacdbe57.Emscripten.clang"
  },
  "schemaVersion": "3.2.3",
  "updatedAt": "2020-08-05T23:43:41.176Z",
  "devdoc": {
    "methods": {}
  },
  "userdoc": {
    "methods": {}
  }
}